:100000000C9448040C9465040C9465040C946504E9
:100010000C9465040C9465040C9465040C946504BC
:100020000C9465040C9465040C9465040C94F10D17
:100030000C945F0E0C9465040C9465040C94650498
:100040000C9465040C9465040C9465040C9465048C
:100050000C9465040C9465040C9465040C9465047C
:100060000C9465040C9465040C9465040C9465046C
:100070000C9465044A09500956095C09620968092B
:100080006E0974097A09800986098C099209980910
:100090009E09A409AA09B009B609BC09C209C80980
:1000A000CE09D409E409EA09F009F609FC09020AB3
:1000B000080A0E0A140A1A0A200A260A2C0A320A08
:1000C000380A3E0A440A4A0A500A560A5C0A620A78
:1000D000680A6E0A7D0A7F0A810A830A850A870AEE
:1000E000890A8B0A8D0A900A930A960A990A9B0A32
:1000F0009D0A9F0AA10AA30AA50AA70AA90AAC0A8F
:10010000AF0AB20A01C10201C10201C10601C00663
:100110001C037A00690061006E005F006B006500DF
:10012000790062006F006100720064000C037A00C5
:10013000690061006E0031000403090409025B00DC
:10014000030100A03209040000010301010009219C
:100150001101000122400007058103080001090484
:1001600001000103010200092111010001228400A4
:1001700007058203080001090402000203000000D1
:100180000921110100012222000705830308000153
:10019000070504030800010631FF0974A101097570
:1001A000150026FF009508750881020976150026BE
:1001B000FF00950875089102C005010902A101859B
:1001C000010901A10005091901290515002501757D
:1001D0000195058102750395018103050109300927
:1001E000311581257F75089502810609381581250D
:1001F0007F35004500750895018106050C0A380217
:100200001581257F750895018106C0C0050109800B
:10021000A1018502150126B700190129B7751095AE
:10022000018100C0050C0901A10185031501269C6F
:100230000219012A9C02751095018100C00501096F
:1002400006A10175019508050719E029E7150025A4
:10025000018102950175088103950575010508194D
:1002600001290591029501750391039506750815FD
:100270000026FF000507190029FF8100C0120100B8
:100280000200000008C21604010002010200010081
:10029000000001010102030404050708090A0C0D0E
:1002A0000F1112141617191B1D1F2122242628298D
:1002B0002B2D2E3031333435363738393A3A3B3BF3
:1002C0003C3C3C3C3C3C3D3D3E3E3F404142434447
:1002D0004647494A4C4D4F5152545658595B5D5F01
:1002E0006062646567696A6B6D6E6F70717273745A
:1002F00074757576767676767676767676767676A2
:100300007676767676767677777777777777777784
:100310007777777777777777787878787878787865
:100320007878787878787878787878787879797A49
:100330007A7B7B7C7D7E7F7F8082838485868789B4
:100340008A8B8C8E8F9091929495969798999A9B80
:100350009C9D9D9E9F9FA0A0A0A1A1A1A1A1A1A2A3
:10036000A2A3A3A4A5A6A7A9AAACADAFB0B2B4B6E8
:10037000B8BABCBEC0C2C4C6C8CACCCED0D2D4D60D
:10038000D8D9DBDCDEDFE0E1E2E3E3E4E4E5E5E568
:10039000E5E4E4E3E2E0DFDDDBD8D6D3D0CDCAC6C6
:1003A000C2BFBBB7B3AFABA6A29E9A95918D89850C
:1003B000817D7A7673706D6A676563615F5E5C5B91
:1003C0005B5A5A5A5A595958575655545351504EC8
:1003D0004C4A484644423F3D3A383633302E2B296A
:1003E0002724221F1D1B1917151312100F0D0C0B9C
:1003F0000A090908080808080808080909090A0A72
:100400000A0B0B0C0D0D0E0E0F10101112131314FE
:10041000151516171818191A1A1B1B1C1D1D1E1E40
:100420001E1F1F1F202020202020202020202020D1
:100430001F1F1F1F1F1E1E1E1E1D1D1D1C1C1C1BE3
:100440001B1A1A1A19191918181817171716161629
:100450001615151515151414141414141414141455
:100460001413131313121212111110100F0F0E0E7A
:100470000D0D0C0B0B0A0A090808070706060504F0
:10048000040303030202010101010000000000391E
:1004900039393939383838373736363534343332F4
:1004A0003231302F2E2D2C2B2B2A2928272625249C
:1004B0002323222120201F1E1E1D1D1C1C1C1B1B54
:1004C0001B1B1B1B1B1B1B1A1A1A1919191818178F
:1004D000161615141413121111100F0E0D0D0C0B0E
:1004E0000A090808070606050404030302020101BD
:1004F00001000000000000000000000000000000FB
:1005000000000000000000000000000000000000EB
:1005100000000000000000000000000000000000DB
:1005200000000000000000000000000001010203C4
:1005300004050607080A0B0D0F11131517191B1DCB
:100540001F212426282A2C2E31333537383A3C3DBA
:100550003F40424344454646474748484848494942
:100560004A4B4C4E4F515356585B5D6063666A6D03
:100570007074787B7F83868A8E9195989C9FA2A5C4
:10058000A8ABAEB0B3B5B7B9BBBCBDBEBFC0C0C0F1
:10059000C0C0C0C0C0C0BFBFBFBFBEBEBEBEBDBD6D
:1005A000BDBCBCBBBBBBBABAB9B9B8B8B8B7B7B6B3
:1005B000B6B6B5B5B4B4B4B4B3B3B3B3B3B2B2B200
:1005C000B2B2B2B2B2B2B2B2B2B2B2B3B3B3B3B306
:1005D000B3B4B4B4B4B4B5B5B5B5B6B6B6B6B7B7CA
:1005E000B7B7B7B8B8B8B8B9B9B9B9B9B9B9BABA83
:1005F000BABABABABABABABABABBBBBBBCBDBDBE4C
:10060000BFC0C1C2C4C5C6C7C9CACCCDCFD0D2D461
:10061000D5D7D8DADBDDDEE0E1E2E3E5E6E7E8E9DD
:10062000EAEAEBECECECEDEDEDEDEDEDECECEBEA0C
:10063000E9E8E7E5E4E2E1DFDDDBD9D7D4D2D0CEEB
:10064000CBC9C6C4C2BFBDBBB8B6B4B2B0AEACAA0B
:10065000A9A7A6A5A3A2A1A1A0A09F9F9F9F9F9E7F
:100660009D9C9B9A99979593918F8D8A888582807E
:100670007D7A7773706D6A6764615E5B585552501E
:100680004D4B48464442413F3E3C3B3B3A3939F3AF
:10069000F3F3F3F3F3F3F3F3F2F2F2F2F2F2F2F133
:1006A000F1F1F1F1F0F0F0F0F0EFEFEFEFEFEEEE4F
:1006B000EEEEEEEDEDEDEDEDEDEDECECECECECEC6D
:1006C000ECECECECECECECEBEBEBEBEAEAE9E9E87C
:1006D000E8E7E6E6E5E4E4E3E2E1E0E0DFDEDDDCF6
:1006E000DCDBDAD9D9D8D7D7D6D6D5D5D4D4D3D39D
:1006F000D3D2D2D2D2D2D2D2D1D1D0CFCECCCBC9FA
:10070000C7C5C3C0BEBBB9B6B3B0ADA9A6A3A09CB4
:10071000999693908C898683807E7B7976747270AB
:100720006E6D6B6A69686867676767676666656547
:10073000646362615F5E5D5B5A58565553514F4D1D
:100740004B4947454342403E3C3A383735333230D7
:100750002F2E2D2C2B2A2928282727272727272704
:1007600026262625252423232221201F1E1D1C1B6F
:100770001A1918171614131211100F0E0D0B0A095F
:10078000080807060504040303020202010101012F
:100790000101010101020202020303030404040532
:1007A0000506060707080809090A0A0B0B0C0C0DB9
:1007B0000D0E0E0F0F0F1010101111111112121239
:1007C00012121212121213131415151617181A1BDF
:1007D0001C1E1F2122242628292B2D2F313335368C
:1007E000383A3C3E3F414244454748494A4B4C4DCC
:1007F0004D4E4E4F4F4F4F4F505152535557595BDF
:100800005D606366696D7174787C8084898D919672
:100810009A9EA2A7ABAFB3B7BABEC2C5C8CBCED063
:10082000D2D4D6D8D9DADBDCDCDCDCDCDCDCDDDD28
:10083000DDDEDEDFDFE0E0E1E2E2E3E4E4E5E6E79F
:10084000E8E9E9EAEBECEDEDEEEFF0F0F1F2F2F3CE
:10085000F4F4F5F5F5F6F6F6F7F7F7F7F7F7F7F737
:10086000F7F7F7F7F7F7F7F7F6F6F6F6F6F6F6F620
:10087000F6F6F5F5F5F5F5F5F5F5F4F4F4F4F4F42C
:10088000F4F4F4F4F3F3F3F3F3F3F3F3F3F3F30027
:1008900011241FBECFEFD2E0DEBFCDBF11E0A0E03C
:1008A000B1E0E6E9F2E202C005900D92A631B1078F
:1008B000D9F721E0A6E1B1E001C01D92A638B20748
:1008C000E1F70E94B70A0C9449110C9400009F9222
:1008D000AF92BF92CF92DF92EF92FF920F931F934E
:1008E000CF93DF93982E80E0C82E81E0D82E94E03D
:1008F000E92E91E0F92E08E011E05B0184E0A80EFA
:10090000B11CEB01E1E09E1611F19E1628F1F2E018
:100910009F16C1F021968FEFC81AD80AEFEFEE1A92
:10092000FE0A0F5F1F4FAC16BD0661F7DF91CF9136
:100930001F910F91FF90EF90DF90CF90BF90AF90FD
:100940009F900895CE010E941811F60109C0CE01B2
:100950000E941811F70104C0CE010E941811F8017D
:100960008083D8CFAF92BF92CF92DF92EF92FF9267
:100970000F931F93CF93DF9380E090E00E942011AC
:100980008C0182E090E00E942011EC0184E090E074
:100990000E9420115C0186E090E00E9420116C0111
:1009A00088E090E00E9420117C010A30110531F4AA
:1009B0008AE090E00E94181180930C012B9751F06F
:1009C0008FE0A816B104A9F46FE070E080E00E9407
:1009D00067040FC001E111E0CBE0D0E0CE010E943E
:1009E0001811F80181938F012196CF30D105B1F70D
:1009F000E7CFF3E1CF16D10429F463E170E081E0A1
:100A00000E94670487E1E816F10429F467E170E0C9
:100A100082E00E9467040DE411E0CBE1D0E0CE015A
:100A20000E941811F80181938F012196C132D105DE
:100A3000B1F78EE190E00E941811817180937901E5
:100A4000DF91CF911F910F91FF90EF90DF90CF90AA
:100A5000BF90AF900895CF93DF93809153018111A0
:100A600054C0C0912001D091210180914801CF3F15
:100A700021EFD20729F4813079F4109248013BC06C
:100A8000CF3F92EFD90741F4811106C00E94EA0AD4
:100A900082E0809348012FC081112DC00E94D60AA8
:100AA000CE3FA3E0DA0748F4F999FECF6091220126
:100AB00070912301CE010E942611CE0102968E3F35
:100AC000B3E09B0740F4F999FECF60912401709147
:100AD00025010E942611CE0104968E3F23E0920745
:100AE00040F4F999FECF60912601709127010E9490
:100AF00026110E94EA0A88E0E0E2F1E0DF011D929F
:100B00008A95E9F781E080935301DF91CF910895B1
:100B1000CF93DF938CE0EBE6F1E0DF01C82F1D926D
:100B2000CA95E9F7E4E5F1E0DF011D928A95E9F75E
:100B3000A0E6B1E08BE0ED0119928A95E9F781E03A
:100B4000808392E0968393E0918719968C93DF914E
:100B5000CF91089588E0E8E3F1E0DF01982F1D923E
:100B60009A95E9F7E8E2F1E0DF011D928A95E9F74D
:100B7000E0E4F1E08DE0DF011D928A95E9F781E084
:100B8000808783878DE78187089588E0E0E3F1E03F
:100B9000DF01982F1D929A95E9F7E0E2F1E0DF017D
:100BA0001D928A95E9F7089580916001811120C016
:100BB0008091650190916601892BD1F48091670144
:100BC00090916801892BA1F4E1E4F1E08191811118
:100BD0000FC081E0E734F807C9F780914001811127
:100BE00007C081E090917801911103C080E00895E1
:100BF00081E0089590E090936601809365010895E7
:100C0000982F907F903981F038F4903281F09038AD
:100C100059F0911112C00BC0903C21F0903E11F0A0
:100C2000903B59F490E005C090E0916002C090E0E4
:100C3000926090936801809367010895E0E6F1E087
:100C40009081892B80830895E0E6F1E0108216827E
:100C50001582108617820895E0E4F1E01182128275
:100C6000138214821582168210820895A1E4B1E0E5
:100C7000FD0191919817A9F091E0E734F907C9F7C0
:100C800020E030E09D91911105C0F901E05CFE4F3C
:100C9000818307C02F5F3F4F2630310599F780E0F1
:100CA000089581E00895E0E4F1E09081892B80834C
:100CB00008958091400190912801981721F0809328
:100CC000280181E001C080E09091410120912A013A
:100CD000291719F090932A0181E090914201209107
:100CE0002B01291719F090932B0181E0909143017A
:100CF00020912C01291719F090932C0181E09091FB
:100D0000440120912D01291719F090932D0181E0C4
:100D10009091450120912E01291719F090932E01F1
:100D200081E09091460120912F01291719F09093AD
:100D30002F0102C0882319F081E080934C010895AF
:100D400080914C01882349F010924C0122E348E045
:100D500068E271E081E00C949B0D81E00895809140
:100D6000600190915501981721F08093550181E021
:100D700001C080E0209165013091660140915B01E6
:100D800050915C014217530729F030935C01209386
:100D90005B0182E0209167013091680140915E0122
:100DA00050915F014217530731F030935F01209358
:100DB0005E0183E001C0811180936A010895CF93A1
:100DC000DF9380916A01837080936A01811102C070
:100DD00081E060C00E94680D8823D1F38FB7F8943A
:100DE000C091E400CE5C92E09093E900D2E0909153
:100DF000E80095FD0EC08FBF0E94680D882341F367
:100E00008091E400C81721F38FB7F894D093E900DC
:100E1000EECF90916A019230E9F0933041F1913038
:100E2000A1F510926A01909154019093F100909174
:100E300055019093F100909156019093F10090919B
:100E400057019093F100909158019093F100909187
:100E5000590119C010926A0190915A019093F100C2
:100E600090915B019093F10090915C010CC0109205
:100E70006A0190915D019093F10090915E019093D1
:100E8000F10090915F019093F1009AE39093E80054
:100E90008FBF80E0DF91CF910895CF93C82F84302A
:100EA00049F480912801882311F085E301C089E28B
:100EB0000E94360680917801C82BC0937801CF91AB
:100EC00008958091780190917A01981721F080938C
:100ED0007A0181E0089580E00895DF92EF92FF9219
:100EE0000F931F93CF93DF9300D000D0CDB7DEB721
:100EF000282F2F702C839C0184E0369527958A95A6
:100F0000E1F72F702B83892F8F708A83892F829529
:100F10008F708983109238018E010F5F1F4F7E0101
:100F200085E0E80EF11C97E2D92EF80180818A3025
:100F300018F08650808306C0882319F0835E808372
:100F400001C0D0820F5F1F4F808180933A0122E35E
:100F500048E068E371E081E00E949B0D10923A0145
:100F600022E348E068E371E081E00E949B0D0E15EA
:100F70001F05D9F68CE280933A0122E348E068E34A
:100F800071E081E00E949B0D10923A0122E348E05B
:100F900068E371E081E00F900F900F900F90DF9168
:100FA000CF911F910F91FF90EF90DF900C949B0DCC
:100FB000DF92EF92FF920F931F93CF93DF9300D0B6
:100FC00000D01F92CDB7DEB79C01EAE0F0E0BF0190
:100FD0000E94FE108D83CB01BF010E94FE108C8306
:100FE000C90164E670E00E94FE10CB01BF010E94BF
:100FF000FE108B83C90168EE73E00E94FE10CB01E6
:10100000BF010E94FE108A83C90160E177E20E945D
:10101000FE106983109238018E010F5F1F4F7E0111
:1010200086E0E80EF11C87E2D82ED0923A01F80152
:1010300081918F01882319F0835E80933A0122E326
:1010400048E068E371E081E00E949B0D10923A0154
:1010500022E348E068E371E081E00E949B0D0E15F9
:101060001F0519F78CE280933A0122E348E068E318
:1010700071E081E00E949B0D10923A0122E348E06A
:1010800068E371E081E00F900F900F900F900F9048
:10109000DF91CF911F910F91FF90EF90DF900C9413
:1010A0009B0D1F93CF93DF93182FC0E0DBE2FE016F
:1010B00085919491112319F00E94D80702C00E94D3
:1010C0006D072296C83C8BE2D80789F7DF91CF9154
:1010D0001F910895FF920F931F93CF93DF938C017D
:1010E00086E0EAE3F1E0DF011D928A95E9F780E40A
:1010F0008093380122E348E068E371E081E00E94D8
:101100009B0DE8010B5F1F4F82E6F82EF0923A012B
:101110008991882319F0885A80933A0122E348E0A4
:1011200068E371E081E00E949B0D10923A0122E396
:1011300048E068E371E081E00E949B0DC017D10791
:1011400029F71092380110923A0122E348E068E34F
:1011500071E081E0DF91CF911F910F91FF900C948E
:101160009B0D882329F196E0EAE3F1E0DF011D926F
:101170009A95E9F7982F991F9927991F9295990F9A
:10118000907E909338018F7780933A0122E348E074
:1011900068E371E081E00E949B0D1092380110928B
:1011A0003A0122E348E068E371E081E00C949B0D92
:1011B0000895CF93DF9300D000D01F92CDB7DEB754
:1011C000382F292F911103C00E94B1082CC0EAE0EA
:1011D000F0E0BF010E94FE108D83CB01BF010E9491
:1011E000FE108C83832F922F64E670E00E94FE1025
:1011F000CB01BF010E94FE108B83832F922F68EEDC
:1012000073E00E94FE10CB01BF010E94FE108A8392
:10121000832F922F60E177E20E94FE106983CE0156
:1012200001960E946A080F900F900F900F900F90F8
:10123000DF91CF910895EF92FF920F931F93CF9379
:10124000DF938C010E9420117C01892B91F0E80131
:1012500000E010E02296C11584E0D80750F4CE01DA
:101260000E9420110E94D9080F5F1F4FE016F1065F
:1012700089F7DF91CF911F910F91FF90EF90089523
:1012800090E08831910508F094C0FC01E65CFF4FC6
:101290000C941211662311F0209A08952098089555
:1012A000662311F0219A089521980895662311F07C
:1012B000229A089522980895662311F0239A08959A
:1012C00023980895662311F0249A08952498089588
:1012D000662311F0259A089525980895662311F044
:1012E000269A089526980895662311F0279A08955E
:1012F00027980895662311F0389A0895389808952C
:10130000662311F0399A089539980895662311F0EB
:101310003A9A08953A980895662311F03B9A0895F1
:101320003B980895662311F03C9A08953C980895DF
:10133000662311F03D9A08953D980895662311F0B3
:101340003E9A08953E980895662311F03F9A0895B5
:101350003F980895662311F0509A08955098089583
:10136000662311F0519A089551980895662311F05B
:10137000529A089552980895662311F0539A089549
:1013800053980895662311F0549A08955498089537
:10139000662311F0559A089555980895662311F023
:1013A000569A089556980895662311F0579A08950D
:1013B0005798089590E08831910508F094C0FC0199
:1013C000EE5AFF4F0C941211662311F0289A0895DB
:1013D00028980895662311F0299A08952998089568
:1013E000662311F02A9A08952A980895662311F029
:1013F0002B9A08952B980895662311F02C9A08953E
:101400002C980895662311F02D9A08952D9808952B
:10141000662311F02E9A08952E980895662311F0F0
:101420002F9A08952F980895662311F0409A0895F1
:1014300040980895662311F0419A089541980895BF
:10144000662311F0429A089542980895662311F098
:10145000439A089543980895662311F0449A089595
:1014600044980895662311F0459A08954598089583
:10147000662311F0469A089546980895662311F060
:10148000479A089547980895662311F0589A089549
:1014900058980895662311F0599A08955998089517
:1014A000662311F05A9A08955A980895662311F008
:1014B0005B9A08955B980895662311F05C9A0895ED
:1014C0005C980895662311F05D9A08955D980895DB
:1014D000662311F05E9A08955E980895662311F0D0
:1014E0005F9A08955F98089590E088319105E8F536
:1014F000FC01E659FF4F0C94121183B10FC083B168
:1015000010C083B111C083B112C083B123C083B1B5
:1015100024C083B125C083B126C086B181700895EF
:1015200086B18270089586B18470089586B18870FE
:10153000089586B10FC086B110C086B111C086B1C2
:1015400012C089B1EBCF89B1ECCF89B1EDCF89B1B0
:10155000EECF89B18071089589B18072089589B103
:101560008074089589B18078089580E008950C947E
:10157000FE0C10927C01E0917C01E430B0F4F0E0CC
:10158000EF5EFE4F60E080810E944009E0917C01A7
:10159000F0E0EF5EFE4F61E080810E94DA09809109
:1015A0007C018F5F80937C01E6CF089510927C01CF
:1015B000E0917C01E43068F4F0E0E35FFE4F60E02E
:1015C00080810E94DA0980917C018F5F80937C0189
:1015D000EFCF089510927C01E0917C01E43068F433
:1015E000F0E0E35FFE4F61E080810E94DA098091C4
:1015F0007C018F5F80937C01EFCF089510927C0176
:10160000E0917C01E430B0F4F0E0E35FFE4F61E094
:1016100080810E944009E0917C01F0E0E35FFE4F91
:1016200061E080810E94DA0980917C018F5F809364
:101630007C01E6CF10921C0180917901807F80317E
:1016400019F482E080931C010E947C1080E092E0FB
:1016500090938501809384010E947E100C949310D6
:1016600090917A0180911C01892780931C0193FF3E
:1016700005C084E290E00E941B0905C095FF05C0EB
:1016800080E00E94510881E00895892F807496FFC0
:1016900002C081E0F6CF97FDFCCF0895EF92FF9254
:1016A0000F931F93CF93DF9380911C0180FD03C0A4
:1016B0000E94EA0A02C00E94D60A80918401909199
:1016C0008501811522E0920708F455C080911C0124
:1016D00081FF3EC0C6E1D1E08DE4E82E81E0F82E26
:1016E00000E010E0809179018F708130F1F4888101
:1016F00099818115924010F01982188228813981D0
:10170000F901E157F94F6491F901E157FB4F449119
:10171000F901E157FD4F2491C8010E94871088818B
:10172000998101969983888309C0811107C0F701C7
:10173000228141816081C8010E9487100F5F1F4F85
:101740002296F3E0EF0EF11C0230110559F602C0AB
:101750000E947E1080918401909185010197909361
:10176000850180938401DF91CF911F910F91FF90AC
:10177000EF900C94C410009711F0019702C080E024
:1017800092E09093850180938401DF91CF911F9126
:101790000F91FF90EF900895CF93DF9310927B010C
:1017A000CFE0D0E980917B0181113DC010927D0195
:1017B000E0917D01E43088F5F0E0EF5EFE4F80813E
:1017C0000E94740AE0917B0190917D01AE2FB0E000
:1017D000AA0FBB1FAA0FBB1FA050BF4FA90FB11D5F
:1017E000882321F08C9187778C9305C08C91886831
:1017F0008C93D0931B01F0E0EE0FFF1FEE0FFF1F45
:10180000E050FF4FE90FF11D80818E3E11F4C0932F
:1018100077019F5F90937D01CBCF80917B018F5F9C
:1018200080937B01BFCF0E942C060E942406109259
:10183000780110927B0180917B0181119AC01092F6
:101840007D01E0917D0180917B01E43008F08DC045
:1018500090E0F0E0880F991F880F991FDC01A050DD
:10186000BF4FAE0FBF1F3C912091770123232F3034
:1018700009F46DC0D0F42B3009F451C060F4293064
:1018800009F440C02A3009F06AC0AC014C5F5E4FD9
:10189000E40FF51F40C02C3009F44AC02D3009F088
:1018A0005EC0AC014C5F5E4F4CC0203BE1F050F499
:1018B0002039A1F0203A09F052C0885F9E4FE80F0E
:1018C000F91F29C0203DA1F0203FB1F0203C09F0D4
:1018D00046C0885F9E4FE80FF91F2FC0885F9E4F5C
:1018E000E80FF91F14C0885F9E4FE80FF91F1CC056
:1018F000AC01485F5E4F25C0AC01485F5E4FE40F0E
:10190000F51F2AC0AC014C5F5E4FE40FF51F8081CC
:101910000E94360624C080810E94530620C0AC017C
:101920004C5F5E4FE40FF51F80810E941E0617C0BA
:10193000AC014C5F5E4FE40FF51F80810E94FA05F9
:101940000EC0E40FF51F80810E94000608C09C01B4
:101950002C5F3E4FE20FF31F80810E944D07809164
:101960007D018F5F80937D016CCF8F5F80937B01C2
:1019700062CF0E94D405811103C080EF809377016C
:101980000E946107882319F080E380931A010E9466
:101990005906882319F080E380931A010E94AF064C
:1019A000882319F080E380931A0180911B0180390C
:1019B00051F480911A01813031F40E94300B0E9461
:1019C000A0060E94DF0680911B01813031F40E9445
:1019D000300B0E94A0060E94DF0680911B01882325
:1019E00019F0815080931B0180911A01882319F00E
:1019F000815080931A01DF91CF91089580E8809300
:101A00006100109261000E944A0D0E94680D8111D0
:101A10000AC02FEF85EA9EE0215080409040E1F718
:101A200000C00000F2CF0E94B90AC1E0D1E110EF7E
:101A3000C0935301C0934801D09379010E94B2042E
:101A40000E942C060E942406109377010E94FE0A31
:101A50002FEF89E698E1215080409040E1F700C0E7
:101A6000000022E348E068E271E081E00E949B0D03
:101A70000E942B05809148018230D1F28130C1F75C
:101A80000E94CC0B0E944E0BF3CF8091E80080FFA8
:101A9000FCCF089580EA8093D80086E089BD09B420
:101AA00000FEFDCF80E88093D8001092E0001092F5
:101AB0001F018CE08093E20078940E94AA050E94A6
:101AC00088050E94C5051092780110927A01089548
:101AD00080911F01089590911F01911102C081E032
:101AE00008959FB7F8943091E400230F8093E900A4
:101AF0003091E80035FF03C0FB0150E00CC09FBFF0
:101B000090911F01992359F39091E400291739F31B
:101B10009FB7F894EBCF9F01261B370B241735078F
:101B200024F48091F1008193F6CF8AE38093E8005A
:101B30009FBF80E0089590911F01911102C081E044
:101B400008959FB7F8943091E400230F8093E90043
:101B50003091E80035FF03C0FB0150E00CC09FBF8F
:101B600090911F01992359F39091E400291739F3BB
:101B70009FB7F894EBCF9F01261B370B241735072F
:101B800024F481918093F100F6CF8AE38093E800FA
:101B90009FBF80E0089520911E012F5F822F62E396
:101BA0000E94F210992319F020931E0108951092BB
:101BB0001E018091E80085FF13C0809153018823A6
:101BC00079F08091480120E0811102C048E001C015
:101BD00042E060E271E084E00E946B0D809353016B
:101BE00008951F920F920FB60F9211242F933F93D7
:101BF0004F935F936F937F938F939F93AF93BF9315
:101C0000EF93FF938091E1001092E10083FF0FC0FA
:101C10001092E90091E09093EB001092EC0092E0BA
:101C20009093ED0098E09093F00010921F0182FFD6
:101C300035C080911F01882389F10E94CB0D9091BE
:101C40004901992359F180911D018F5F80931D01F6
:101C5000837021F581E08093E9008091E80085FFA1
:101C60001DC080914A018F5F80934A01891316C07D
:101C700010924A01809128018093F10080912901FE
:101C80008093F100EAE2F1E081918093F10081E03C
:101C9000E033F807C9F78AE38093E800FF91EF91FA
:101CA000BF91AF919F918F917F916F915F914F9174
:101CB0003F912F910F900FBE0F901F9018951F927C
:101CC0000F920FB60F921124FF920F931F932F9331
:101CD0003F934F935F936F937F938F939F93AF93B4
:101CE000BF93CF93DF93EF93FF931092E90080911E
:101CF000E80083FFE8C1F090F1008091F100C0910D
:101D0000F1009091F100D0E0D92B0091F100909179
:101D1000F10010E0192B2091F1009091F10032EFC9
:101D20003093E800863009F094C0C11581E0D807EF
:101D300039F4012B09F0C7C182E14DE752E05AC0E6
:101D4000C115E2E0DE0739F4012B09F0BCC18BE5D7
:101D50004CE351E04FC0C115F2E2DF0721F4011559
:101D6000110589F108C0C11581E2D807E1F4011518
:101D7000110569F104C00230110529F42CC00230AC
:101D8000110549F42CC00130110509F09CC184E80B
:101D900049EB51E02FC00130110509F094C189E0F1
:101DA00047E651E027C0C115E3E0DE07E1F0C130AE
:101DB000F3E0DF07E1F0C230D34009F084C18CE1E9
:101DC00040E151E017C080E44DE352E013C089E0E8
:101DD0004EE451E00FC082E247E951E00BC089E0D8
:101DE00040E851E007C084E048E351E003C08CE0E4
:101DF0004CE251E030E0392B2F3F310519F010F063
:101E00002FEF30E0682F70E02617370708F4822F95
:101E10003EEF9091E8009570E1F39091E80092FD1B
:101E200055C1982F893008F098E0FA01292F222314
:101E300031F064916093F10021503196F8CF490F51
:101E4000511D891B3093E8008111E3CF983009F3CD
:101E50003DC1853049F48EEF8093E8000E94450D26
:101E6000C068C093E30032C1893039F5F1106DC00C
:101E7000C0931F018EEF8093E80041E084E091E081
:101E80004093E9009C012F5F3F4FFC015491509318
:101E9000EB00552359F0F90124912093EC009C01AB
:101EA0002D5F3F4F3196E491E093ED004F5F453059
:101EB00011F0C901E5CF8EE143C0883041F4F0E86C
:101EC000FF1243C00E94450D80911F01EBC081119C
:101ED00015C00E94450D82E8F8120AC00093E9007F
:101EE0008091EB0085FB882780F91092E90001C002
:101EF00080E08093F1001092F100E1C0982F9D7F67
:101F0000913019F592E0F91220C0209709F067C0CE
:101F1000202F2F779FEF920F943008F060C09EEF34
:101F20009093E8002093E900833009F4CCC089E164
:101F30008093EB0081E090E001C0880F2A95EAF7DA
:101F40008093EA001092EA00C1C00115110509F062
:101F50004AC0E1EAFE1225C08130A1F40E94450D7D
:101F6000809128018093F100809129018093F100F4
:101F7000EAE2F1E081918093F10081E0E033F8073B
:101F8000C9F79DC0823029F40E94450D8091490116
:101F900089C0833009F097C00E94450D80914B01A4
:101FA00081C091E2F9128FC0893061F48091E8001C
:101FB00082FFFCCF8091F100809347018BEF8093EB
:101FC000E8007DC08A3029F4D093490110924A017B
:101FD00076C08B3009F077C0C0934B0170C00115FB
:101FE000110509F470C002301105A9F591EAF91242
:101FF0001FC0813009F067C088E03EEF9091E80093
:10200000292F2570D9F392FD61C0982F893008F0EF
:1020100098E0292F222321F01092F1002150FACFCD
:10202000891B3093E8008111E9CF983039F34EC015
:10203000E1E2FE1248C08A3009F441C0893009F05B
:1020400042C08091E80082FFFCCF8BEF8093E800D4
:102050000E94450D34C001301105A9F5F1EAFF12C7
:1020600024C08130C9F40E94450D809154018093B1
:10207000F100809155018093F10080915601809389
:10208000F100809157018093F10080915801809375
:10209000F1008091590106C08330A9F40E94450DDA
:1020A000809169018093F1000AC091E2F9120BC09E
:1020B0008B3019F4C093690102C08A3021F48EEF8D
:1020C0008093E80003C081E28093EB00FF91EF91E1
:1020D000DF91CF91BF91AF919F918F917F916F9140
:1020E0005F914F913F912F911F910F91FF900F9012
:1020F0000FBE0F901F9018953E9A0895EEE7F1E0FD
:102100001082118212821382148215820895362F52
:1021100063E070E00E94E110FC01E258FE4F408352
:10212000318322830895F894EEE7F1E044E851E02A
:1021300028E030E0808190E0022E02C095958795DE
:102140000A94E2F7469A80FF0CC0000000000000ED
:1021500000000000000000000000000000004698A1
:102160000AC00000469800000000000000000000C7
:1021700000000000000021503109E1F631964E17B1
:102180005F07B1F678940895F89498B19F7B88B171
:102190008064EEE7F1E0219138E088B9000000C0EA
:1021A00027FF98B9220F000000C000C000C098B9F6
:1021B00000C03A9591F721E0E438F20761F778948E
:1021C00008950024552704C0080E591F880F991F31
:1021D000009729F076956795B8F37105B9F7802DCA
:1021E000952F0895991B79E004C0991F961708F060
:1021F000961B881F7A95C9F780950895AA1BBB1B6B
:1022000051E107C0AA1FBB1FA617B70710F0A61BF6
:10221000B70B881F991F5A95A9F780959095BC0117
:10222000CD010895EE0FFF1F0590F491E02D099464
:10223000F999FECF92BD81BDF89A992780B508958E
:10224000A8E1B0E042E050E00C942D110E943B1157
:10225000272F0C943C11DC01CB01FC01F999FECF36
:1022600006C0F2BDE1BDF89A319600B40D9241501E
:102270005040B8F70895262FF999FECF1FBA92BDA6
:1022800081BD20BD0FB6F894FA9AF99A0FBE019657
:062290000895F894FFCF51
:1022960017171766010204001E1F2000FF151207FC
:0622A6000513100C0400FA
:00000001FF
