:100000000C9448040C9465040C9465040C946504E9
:100010000C9465040C9465040C9465040C946504BC
:100020000C9465040C9465040C9465040C94270DE1
:100030000C94950D0C9465040C9465040C94650463
:100040000C9465040C9465040C9465040C9465048C
:100050000C9465040C9465040C9465040C9465047C
:100060000C9465040C9465040C9465040C9465046C
:100070000C94650477087D08830889088F08950823
:100080009B08A108A708AD08B308B908BF08C508B0
:10009000CB08D108D708DD08E308E908EF08F50820
:1000A000FB080109110917091D09230929092F094D
:1000B00035093B09410947094D09530959095F09A8
:1000C00065096B09710977097D09830989098F0918
:1000D00095099B09AA09AC09AE09B009B209B4098E
:1000E000B609B809BA09BD09C009C309C609C809D2
:1000F000CA09CC09CE09D009D209D409D609D9092F
:10010000DC09DF0901C10201C10201C10601C0060B
:100110001C037A00690061006E005F006B006500DF
:10012000790062006F006100720064000C037A00C5
:10013000690061006E0031000403090409025B00DC
:10014000030100A03209040000010301010009219C
:100150001101000122400007058103080001090484
:1001600001000103010200092111010001228400A4
:1001700007058203080001090402000203000000D1
:100180000921110100012222000705830308000153
:10019000070504030800010631FF0974A101097570
:1001A000150026FF009508750881020976150026BE
:1001B000FF00950875089102C005010902A101859B
:1001C000010901A10005091901290515002501757D
:1001D0000195058102750395018103050109300927
:1001E000311581257F75089502810609381581250D
:1001F0007F35004500750895018106050C0A380217
:100200001581257F750895018106C0C0050109800B
:10021000A1018502150126B700190129B7751095AE
:10022000018100C0050C0901A10185031501269C6F
:100230000219012A9C02751095018100C00501096F
:1002400006A10175019508050719E029E7150025A4
:10025000018102950175088103950575010508194D
:1002600001290591029501750391039506750815FD
:100270000026FF000507190029FF8100C0120100B8
:100280000200000008C21605010002010200010080
:10029000000001010102030404050708090A0C0D0E
:1002A0000F1112141617191B1D1F2122242628298D
:1002B0002B2D2E3031333435363738393A3A3B3BF3
:1002C0003C3C3C3C3C3C3D3D3E3E3F404142434447
:1002D0004647494A4C4D4F5152545658595B5D5F01
:1002E0006062646567696A6B6D6E6F70717273745A
:1002F00074757576767676767676767676767676A2
:100300007676767676767677777777777777777784
:100310007777777777777777787878787878787865
:100320007878787878787878787878787879797A49
:100330007A7B7B7C7D7E7F7F8082838485868789B4
:100340008A8B8C8E8F9091929495969798999A9B80
:100350009C9D9D9E9F9FA0A0A0A1A1A1A1A1A1A2A3
:10036000A2A3A3A4A5A6A7A9AAACADAFB0B2B4B6E8
:10037000B8BABCBEC0C2C4C6C8CACCCED0D2D4D60D
:10038000D8D9DBDCDEDFE0E1E2E3E3E4E4E5E5E568
:10039000E5E4E4E3E2E0DFDDDBD8D6D3D0CDCAC6C6
:1003A000C2BFBBB7B3AFABA6A29E9A95918D89850C
:1003B000817D7A7673706D6A676563615F5E5C5B91
:1003C0005B5A5A5A5A595958575655545351504EC8
:1003D0004C4A484644423F3D3A383633302E2B296A
:1003E0002724221F1D1B1917151312100F0D0C0B9C
:1003F0000A090908080808080808080909090A0A72
:100400000A0B0B0C0D0D0E0E0F10101112131314FE
:10041000151516171818191A1A1B1B1C1D1D1E1E40
:100420001E1F1F1F202020202020202020202020D1
:100430001F1F1F1F1F1E1E1E1E1D1D1D1C1C1C1BE3
:100440001B1A1A1A19191918181817171716161629
:100450001615151515151414141414141414141455
:100460001413131313121212111110100F0F0E0E7A
:100470000D0D0C0B0B0A0A090808070706060504F0
:10048000040303030202010101010000000000391E
:1004900039393939383838373736363534343332F4
:1004A0003231302F2E2D2C2B2B2A2928272625249C
:1004B0002323222120201F1E1E1D1D1C1C1C1B1B54
:1004C0001B1B1B1B1B1B1B1A1A1A1919191818178F
:1004D000161615141413121111100F0E0D0D0C0B0E
:1004E0000A090808070606050404030302020101BD
:1004F00001000000000000000000000000000000FB
:1005000000000000000000000000000000000000EB
:1005100000000000000000000000000000000000DB
:1005200000000000000000000000000001010203C4
:1005300004050607080A0B0D0F11131517191B1DCB
:100540001F212426282A2C2E31333537383A3C3DBA
:100550003F40424344454646474748484848494942
:100560004A4B4C4E4F515356585B5D6063666A6D03
:100570007074787B7F83868A8E9195989C9FA2A5C4
:10058000A8ABAEB0B3B5B7B9BBBCBDBEBFC0C0C0F1
:10059000C0C0C0C0C0C0BFBFBFBFBEBEBEBEBDBD6D
:1005A000BDBCBCBBBBBBBABAB9B9B8B8B8B7B7B6B3
:1005B000B6B6B5B5B4B4B4B4B3B3B3B3B3B2B2B200
:1005C000B2B2B2B2B2B2B2B2B2B2B2B3B3B3B3B306
:1005D000B3B4B4B4B4B4B5B5B5B5B6B6B6B6B7B7CA
:1005E000B7B7B7B8B8B8B8B9B9B9B9B9B9B9BABA83
:1005F000BABABABABABABABABABBBBBBBCBDBDBE4C
:10060000BFC0C1C2C4C5C6C7C9CACCCDCFD0D2D461
:10061000D5D7D8DADBDDDEE0E1E2E3E5E6E7E8E9DD
:10062000EAEAEBECECECEDEDEDEDEDEDECECEBEA0C
:10063000E9E8E7E5E4E2E1DFDDDBD9D7D4D2D0CEEB
:10064000CBC9C6C4C2BFBDBBB8B6B4B2B0AEACAA0B
:10065000A9A7A6A5A3A2A1A1A0A09F9F9F9F9F9E7F
:100660009D9C9B9A99979593918F8D8A888582807E
:100670007D7A7773706D6A6764615E5B585552501E
:100680004D4B48464442413F3E3C3B3B3A3939F3AF
:10069000F3F3F3F3F3F3F3F3F2F2F2F2F2F2F2F133
:1006A000F1F1F1F1F0F0F0F0F0EFEFEFEFEFEEEE4F
:1006B000EEEEEEEDEDEDEDEDEDEDECECECECECEC6D
:1006C000ECECECECECECECEBEBEBEBEAEAE9E9E87C
:1006D000E8E7E6E6E5E4E4E3E2E1E0E0DFDEDDDCF6
:1006E000DCDBDAD9D9D8D7D7D6D6D5D5D4D4D3D39D
:1006F000D3D2D2D2D2D2D2D2D1D1D0CFCECCCBC9FA
:10070000C7C5C3C0BEBBB9B6B3B0ADA9A6A3A09CB4
:10071000999693908C898683807E7B7976747270AB
:100720006E6D6B6A69686867676767676666656547
:10073000646362615F5E5D5B5A58565553514F4D1D
:100740004B4947454342403E3C3A383735333230D7
:100750002F2E2D2C2B2A2928282727272727272704
:1007600026262625252423232221201F1E1D1C1B6F
:100770001A1918171614131211100F0E0D0B0A095F
:10078000080807060504040303020202010101012F
:100790000101010101020202020303030404040532
:1007A0000506060707080809090A0A0B0B0C0C0DB9
:1007B0000D0E0E0F0F0F1010101111111112121239
:1007C00012121212121213131415151617181A1BDF
:1007D0001C1E1F2122242628292B2D2F313335368C
:1007E000383A3C3E3F414244454748494A4B4C4DCC
:1007F0004D4E4E4F4F4F4F4F505152535557595BDF
:100800005D606366696D7174787C8084898D919672
:100810009A9EA2A7ABAFB3B7BABEC2C5C8CBCED063
:10082000D2D4D6D8D9DADBDCDCDCDCDCDCDCDDDD28
:10083000DDDEDEDFDFE0E0E1E2E2E3E4E4E5E6E79F
:10084000E8E9E9EAEBECEDEDEEEFF0F0F1F2F2F3CE
:10085000F4F4F5F5F5F6F6F6F7F7F7F7F7F7F7F737
:10086000F7F7F7F7F7F7F7F7F6F6F6F6F6F6F6F620
:10087000F6F6F5F5F5F5F5F5F5F5F4F4F4F4F4F42C
:10088000F4F4F4F4F3F3F3F3F3F3F3F3F3F3F30027
:1008900011241FBECFEFD2E0DEBFCDBF11E0A0E03C
:1008A000B1E0ECEFF0E202C005900D92AA31B10781
:1008B000D9F721E0AAE1B1E001C01D92A238B20748
:1008C000E1F70E94E4090C947C100C9400009F92C4
:1008D000AF92BF92CF92DF92EF92FF920F931F934E
:1008E000CF93DF93982E80E0C82E81E0D82E95E03C
:1008F000E92E91E0F92E0AE011E05B0185E0A80EF7
:10090000B11CEB01E1E09E1611F19E1628F1F2E018
:100910009F16C1F021968FEFC81AD80AEFEFEE1A92
:10092000FE0A0F5F1F4FAC16BD0661F7DF91CF9136
:100930001F910F91FF90EF90DF90CF90BF90AF90FD
:100940009F900895CE010E944B10F60109C0CE0180
:100950000E944B10F70104C0CE010E944B10F80119
:100960008083D8CFAF92BF92CF92DF92EF92FF9267
:100970000F931F93CF93DF9380E090E00E9453107A
:100980008C0182E090E00E945310EC0184E090E042
:100990000E9453105C0186E090E00E9453106C01AD
:1009A00088E090E00E9453107C010A30110531F478
:1009B0008AE090E00E944B1080930F012B9751F03A
:1009C00080E1A816B104A9F460E170E080E00E9423
:1009D00067040FC005E111E0CBE0D0E0CE010E943A
:1009E0004B10F80181938F012196C031D105B1F7E9
:1009F000E7CFF5E1CF16D10429F465E170E081E09D
:100A00000E9467048AE1E816F10429F46AE170E0C3
:100A100082E00E9467048FE190E00E944B10809377
:100A20004F0180E290E00E944B108093500181E2E0
:100A300090E00E944B108093510182E290E00E946E
:100A40004B10817180937801DF91CF911F910F91AD
:100A5000FF90EF90DF90CF90BF90AF900895CF932D
:100A6000DF9380915201811154C0C0912201D09135
:100A7000230180914A01CF3F21EFD20729F4813031
:100A800079F410924A013BC0CF3F92EFD90741F46D
:100A9000811106C00E94010A82E080934A012FC0A2
:100AA00081112DC00E94ED09CE3FA3E0DA0748F482
:100AB000F999FECF6091240170912501CE010E9429
:100AC0005910CE0102968E3FB3E09B0740F4F9998E
:100AD000FECF60912601709127010E945910CE012E
:100AE00004968E3F23E0920740F4F999FECF60917F
:100AF0002801709129010E9459100E94010A88E082
:100B0000E2E2F1E0DF011D928A95E9F781E080934E
:100B10005201DF91CF910895CF93DF938CE0EAE605
:100B2000F1E0DF01C82F1D92CA95E9F7E3E5F1E096
:100B3000DF011D928A95E9F7AFE5B1E08BE0ED01A9
:100B400019928A95E9F781E0808392E0968393E099
:100B5000918719968C93DF91CF91089588E0EAE30D
:100B6000F1E0DF01982F1D929A95E9F7EAE2F1E0B2
:100B7000DF011D928A95E9F7E2E4F1E08DE0DF0103
:100B80001D928A95E9F781E0808783878DE78187C9
:100B9000089588E0E2E3F1E0DF01982F1D929A9535
:100BA000E9F7E2E2F1E0DF011D928A95E9F70895A5
:100BB00080915F01811120C0809164019091650155
:100BC000892BD1F48091660190916701892BA1F462
:100BD000E3E4F1E0819181110FC081E0E934F8078D
:100BE000C9F780914201811107C081E0909177019E
:100BF000911103C080E0089581E0089590E0909302
:100C00006501809364010895982F907F903981F059
:100C100038F4903281F0903859F0911112C00BC025
:100C2000903C21F0903E11F0903B59F490E005C0CB
:100C300090E0916002C090E0926090936701809391
:100C400066010895EFE5F1E09081892B8083089596
:100C5000EFE5F1E010821682158210861782089562
:100C6000E2E4F1E01182128213821482158216826C
:100C700010820895A3E4B1E0FD0191919817A9F0C5
:100C800091E0E934F907C9F720E030E09D91911136
:100C900005C0F901EE5BFE4F818307C02F5F3F4F18
:100CA0002630310599F780E0089581E00895E2E467
:100CB000F1E09081892B8083089580914201909189
:100CC0002A01981721F080932A0181E001C080E079
:100CD0009091430120912C01291719F090932C0138
:100CE00081E09091440120912D01291719F09093F2
:100CF0002D0181E09091450120912E01291719F0D5
:100D000090932E0181E09091460120912F012917A7
:100D100019F090932F0181E09091470120913001CB
:100D2000291719F09093300181E0909148012091AA
:100D30003101291719F09093310102C0882319F06D
:100D400081E080934E01089580914E01882349F0FF
:100D500010924E0122E348E06AE271E081E00C94D7
:100D6000D10C81E0089580915F0190915401981712
:100D700021F08093540181E001C080E02091640162
:100D80003091650140915A0150915B014217530720
:100D900029F030935B0120935A0182E02091660193
:100DA0003091670140915D0150915E0142175307F8
:100DB00031F030935E0120935D0183E001C0811129
:100DC000809369010895CF93DF93809169018370C7
:100DD00080936901811102C081E060C00E949E0C75
:100DE0008823D1F38FB7F894C091E400CE5C92E0F1
:100DF0009093E900D2E09091E80095FD0EC08FBF7E
:100E00000E949E0C882341F38091E400C81721F3CF
:100E10008FB7F894D093E900EECF909169019230AA
:100E2000E9F0933041F19130A1F510926901909170
:100E300053019093F100909154019093F10090919F
:100E400055019093F100909156019093F10090918B
:100E500057019093F1009091580119C010926901C7
:100E6000909159019093F10090915A019093F10063
:100E700090915B010CC01092690190915C0190937C
:100E8000F10090915D019093F10090915E0190933B
:100E9000F1009AE39093E8008FBF80E0DF91CF915B
:100EA0000895CF93C82F843049F480912A01882374
:100EB00011F085E301C089E20E943A068091770132
:100EC000C82BC0937701CF910895809177019091BD
:100ED0007901981721F08093790181E0089580E0ED
:100EE0000895FF920F931F93CF93DF938C0186E0B9
:100EF000ECE3F1E0DF011D928A95E9F780E480934D
:100F00003A0122E348E06AE371E081E00E94D10CFB
:100F1000E8010B5F1F4F82E6F82EF0923C018991A9
:100F2000882319F0885A80933C0122E348E06AE361
:100F300071E081E00E94D10C10923C0122E348E074
:100F40006AE371E081E00E94D10CC017D10729F754
:100F500010923A0110923C0122E348E06AE371E00A
:100F600081E0DF91CF911F910F91FF900C94D10CF4
:100F7000882329F196E0ECE3F1E0DF011D929A95D8
:100F8000E9F7982F991F9927991F9295990F907EAD
:100F900090933A018F7780933C0122E348E06AE323
:100FA00071E081E00E94D10C10923A0110923C0154
:100FB00022E348E06AE371E081E00C94D10C0895EB
:100FC000CF93DF9300D000D01F92CDB7DEB7382F7C
:100FD000292F911103C00E94B8072CC0EAE0F0E06D
:100FE000BF010E9431108D83CB01BF010E943110DF
:100FF0008C83832F922F64E670E00E943110CB0126
:10100000BF010E9431108B83832F922F68EE73E013
:101010000E943110CB01BF010E9431108A83832FBF
:10102000922F60E177E20E9431106983CE01019630
:101030000E9471070F900F900F900F900F90DF910B
:10104000CF910895EF92FF920F931F93CF93DF9369
:10105000FC01E590F490E114F10499F0EC01229682
:1010600000E010E0C13080E3D80758F4FE0185911C
:1010700094910E94E0070F5F1F4F2296E016F10641
:1010800089F7DF91CF911F910F91FF90EF90089515
:10109000EF92FF920F931F93CF93DF938C010E94E7
:1010A00053107C01892B91F0E80100E010E02296BA
:1010B000C11584E0D80750F4CE010E9453100E945D
:1010C000E0070F5F1F4FE016F10689F7DF91CF9120
:1010D0001F910F91FF90EF90089590E08831910556
:1010E00008F094C0FC01E65CFF4F0C9445106623A9
:1010F00011F0209A089520980895662311F0219AFE
:10110000089521980895662311F0229A089522984F
:101110000895662311F0239A08952398089566236D
:1011200011F0249A089524980895662311F0259AC1
:10113000089525980895662311F0269A0895269813
:101140000895662311F0279A089527980895662335
:1011500011F0389A089538980895662311F0399A55
:10116000089539980895662311F03A9A08953A98A7
:101170000895662311F03B9A08953B9808956623DD
:1011800011F03C9A08953C980895662311F03D9A19
:1011900008953D980895662311F03E9A08953E986B
:1011A0000895662311F03F9A08953F9808956623A5
:1011B00011F0509A089550980895662311F0519AAD
:1011C000089551980895662311F0529A08955298FF
:1011D0000895662311F0539A08955398089566234D
:1011E00011F0549A089554980895662311F0559A71
:1011F000089555980895662311F0569A08955698C3
:101200000895662311F0579A08955798089590E02D
:101210008831910508F094C0FC01EE5AFF4F0C9400
:101220004510662311F0289A08952898089566239A
:1012300011F0299A089529980895662311F02A9AA1
:1012400008952A980895662311F02B9A08952B98F3
:101250000895662311F02C9A08952C98089566231A
:1012600011F02D9A08952D980895662311F02E9A65
:1012700008952E980895662311F02F9A08952F98B7
:101280000895662311F0409A0895409808956623C2
:1012900011F0419A089541980895662311F0429AF9
:1012A000089542980895662311F0439A089543984B
:1012B0000895662311F0449A08954498089566238A
:1012C00011F0459A089545980895662311F0469ABD
:1012D000089546980895662311F0479A089547980F
:1012E0000895662311F0589A089558980895662332
:1012F00011F0599A089559980895662311F05A9A51
:1013000008955A980895662311F05B9A08955B98A2
:101310000895662311F05C9A08955C9808956623F9
:1013200011F05D9A08955D980895662311F05E9A14
:1013300008955E980895662311F05F9A08955F9866
:10134000089590E088319105E8F5FC01E659FF4FDA
:101350000C94451083B10FC083B110C083B111C08C
:1013600083B112C083B123C083B124C083B125C02F
:1013700083B126C086B18170089586B182700895C8
:1013800086B18470089586B18870089586B10FC0C3
:1013900086B110C086B111C086B112C089B1EBCF41
:1013A00089B1ECCF89B1EDCF89B1EECF89B1807130
:1013B000089589B18072089589B18074089589B1C2
:1013C0008078089580E008950C94340C8AB1807E72
:1013D0008AB98BB18F618BB9089510927E01E0912B
:1013E0007E01E53068F4F0E0E05FFE4F60E0808170
:1013F0000E94070980917E018F5F80937E01EFCF6D
:10140000089510927E01E0917E01E53068F4F0E0ED
:10141000E05FFE4F61E080810E94070980917E01BC
:101420008F5F80937E01EFCF089510927E01E0914F
:101430007E01E530B0F4F0E0E05FFE4F61E08081D6
:101440000E946D08E0917E01F0E0E05FFE4F61E0F8
:1014500080810E94070980917E018F5F80937E01C9
:10146000E6CF10921E0180917801807F803119F4BF
:1014700082E080931E010E94B20F80E092E0909380
:101480008101809380010E94B40F0C94C60F90914B
:10149000790180911E01892780931E0193FF05C069
:1014A00088E290E00E94480808C0892F807194FF6C
:1014B00005C080E092E20E94220881E008958091B8
:1014C0001E0180FD03C00E94010A02C00E94ED09B6
:1014D0008091800190918101811522E0920708F4AA
:1014E0004CC080911E0181FF3BC0809178018F70BC
:1014F000813049F580911A0190911B01811592402C
:1015000020F010921B0110921A0120911A013091C3
:101510001B01F901E157F94F6491F901E157FB4FC4
:101520004491F901E157FD4F249180E090E00E9441
:10153000BA0F80911A0190911B01019690931B01A3
:1015400080931A010FC081110DC02091510140916B
:10155000500160914F0180E090E00E94BA0F02C0FC
:101560000E94B40F80918001909181010197909326
:101570008101809380010C94F70F009711F001977F
:1015800002C080E092E090938101809380010895F1
:10159000CF93DF9310927D01CFE0D0E980917D0160
:1015A00081114CC010927F01E0917F01E53008F07D
:1015B0003FC0F0E0EB5EFE4F80810E94A1093091B8
:1015C0007D0120917F01882379F0832F90E065E0F1
:1015D00070E00E94141080509F4FFC01E20FF11D3B
:1015E00080818777808310C0832F90E065E070E072
:1015F0000E94141080509F4FFC01E20FF11D80816A
:1016000088688083D0931D01832F90E065E070E0AF
:101610000E94141080509F4FFC01E20FF11D808149
:101620008E3E11F4C09376012F5F20937F01BCCFD3
:1016300080917D018F5F80937D01B0CF0E94300645
:101640000E9428061092770110927D0180917D0101
:101650008111C5C010927F01E0917F0120917D0131
:10166000E53008F0B8C030E0F0E0C90165E070E0B6
:101670000E94141080509F4FDC01AE0FBF1F9C9141
:101680008091760189238F3009F493C000F58B3067
:1016900009F46FC070F4893009F458C08A3009F039
:1016A00094C0C90165E070E00E9414108B5F9E4FEA
:1016B0005AC08C3009F46AC08D3009F086C0C90167
:1016C00065E070E00E9414108B5F9E4F6CC0803B01
:1016D00029F168F48039D1F0803A09F076C0C90167
:1016E00065E070E00E941410865F9E4F3CC0803D14
:1016F000E9F0803F19F1803C09F067C0C90165E05D
:1017000070E00E941410865F9E4F47C0C90165E0DB
:1017100070E00E941410865F9E4F1FC0C90165E0F3
:1017200070E00E941410865F9E4F2AC0C90165E0D8
:1017300070E00E941410865F9E4F35C0C90165E0BD
:1017400070E00E941410865F9E4F3AC0C90165E0A8
:1017500070E00E9414108B5F9E4FE80FF91F80818C
:101760000E943A0632C0E80FF91F80810E94570696
:101770002CC0C90165E070E00E9414108B5F9E4F81
:10178000E80FF91F80810E9422061FC0C90165E091
:1017900070E00E9414108B5F9E4FE80FF91F80814C
:1017A0000E94FE0512C0E80FF91F80810E94040606
:1017B0000CC0C90165E070E00E9414108B5F9E4F61
:1017C000E80FF91F80810E94510780917F018F5F90
:1017D00080937F0141CF2F5F20937D0137CF0E94FF
:1017E000D805811103C080EF809376010E946507C0
:1017F000882319F080E380931C010E945D068823F2
:1018000019F080E380931C010E94B306882319F02D
:1018100080E380931C0180911D01803951F48091F7
:101820001C01813031F40E94470A0E94A4060E94E4
:10183000E30680911D01813031F40E94470A0E9425
:10184000A4060E94E30680911D01882319F08150AF
:1018500080931D0180911C01882319F08150809391
:101860001C01DF91CF91089580E880936100109270
:1018700061000E94800C0E949E0C81110AC02FEF13
:1018800085EA9EE0215080409040E1F700C00000D2
:10189000F2CF0E94E609C1E0D1E110EFC0935201FE
:1018A000C0934A01D09378010E94B2040E9430068E
:1018B0000E942806109376010E94150A2FEF89E6F0
:1018C00098E1215080409040E1F700C0000022E301
:1018D00048E06AE271E081E00E94D10C0E942F058D
:1018E00080914A018230D1F28130C1F70E94C80A4A
:1018F0000E945F0AF3CF8091E80080FFFCCF08953B
:1019000080EA8093D80086E089BD09B400FEFDCF4F
:1019100080E88093D8001092E000109221018CE0C2
:101920008093E20078940E94AE050E948C050E948C
:10193000C9051092770110927901089580912101D3
:10194000089590912101911102C081E008959FB7FF
:10195000F8943091E400230F8093E9003091E8007F
:1019600035FF03C0FB0150E00CC09FBF90912101E7
:10197000992359F39091E400291739F39FB7F8940C
:10198000EBCF9F01261B370B2417350724F48091DA
:10199000F1008193F6CF8AE38093E8009FBF80E057
:1019A000089590912101911102C081E008959FB79F
:1019B000F8943091E400230F8093E9003091E8001F
:1019C00035FF03C0FB0150E00CC09FBF9091210187
:1019D000992359F39091E400291739F39FB7F894AC
:1019E000EBCF9F01261B370B2417350724F4819179
:1019F0008093F100F6CF8AE38093E8009FBF80E0F8
:101A00000895209120012F5F822F62E30E9425100C
:101A1000992319F0209320010895109220018091BC
:101A2000E80085FF13C080915201882379F08091EE
:101A30004A0120E0811102C048E001C042E062E2B8
:101A400071E084E00E94A10C8093520108951F92DE
:101A50000F920FB60F9211242F933F934F935F93E2
:101A60006F937F938F939F93AF93BF93EF93FF9366
:101A70008091E1001092E10083FF0FC01092E90015
:101A800091E09093EB001092EC0092E09093ED00C7
:101A900098E09093F0001092210182FF35C0809170
:101AA0002101882389F10E94010D90914B01992316
:101AB00059F180911F018F5F80931F01837021F581
:101AC00081E08093E9008091E80085FF1DC080914E
:101AD0004C018F5F80934C01891316C010924C010A
:101AE00080912A018093F10080912B018093F10075
:101AF000ECE2F1E081918093F10081E0E233F807BC
:101B0000C9F78AE38093E800FF91EF91BF91AF910D
:101B10009F918F917F916F915F914F913F912F9105
:101B20000F900FBE0F901F9018951F920F920FB637
:101B30000F921124FF920F931F932F933F934F9374
:101B40005F936F937F938F939F93AF93BF93CF9345
:101B5000DF93EF93FF931092E9008091E80083FFF9
:101B6000E8C1F090F1008091F100C091F1009091F6
:101B7000F100D0E0D92B0091F1009091F10010E03C
:101B8000192B2091F1009091F10032EF3093E80091
:101B9000863009F094C0C11581E0D80739F4012BD3
:101BA00009F0C7C182E14DE752E05AC0C115E2E039
:101BB000DE0739F4012B09F0BCC18BE54CE351E0A1
:101BC0004FC0C115F2E2DF0721F40115110589F1BB
:101BD00008C0C11581E2D807E1F40115110569F1CA
:101BE00004C00230110529F42CC00230110549F45B
:101BF0002CC00130110509F09CC184E849EB51E08B
:101C00002FC00130110509F094C189E047E651E089
:101C100027C0C115E3E0DE07E1F0C130F3E0DF07E4
:101C2000E1F0C230D34009F084C18CE140E151E0E1
:101C300017C080E44DE352E013C089E04EE451E068
:101C40000FC082E247E951E00BC089E040E851E073
:101C500007C084E048E351E003C08CE04CE251E06F
:101C600030E0392B2F3F310519F010F02FEF30E025
:101C7000682F70E02617370708F4822F3EEF909107
:101C8000E8009570E1F39091E80092FD55C1982F1E
:101C9000893008F098E0FA01292F222331F064916D
:101CA0006093F10021503196F8CF490F511D891BE7
:101CB0003093E8008111E3CF983009F33DC18530BE
:101CC00049F48EEF8093E8000E947B0CC068C093BB
:101CD000E30032C1893039F5F1106DC0C0932101A4
:101CE0008EEF8093E80041E084E091E04093E900CA
:101CF0009C012F5F3F4FFC0154915093EB00552303
:101D000059F0F90124912093EC009C012D5F3F4F85
:101D10003196E491E093ED004F5F453011F0C90139
:101D2000E5CF8EE143C0883041F4F0E8FF1243C0B4
:101D30000E947B0C80912101EBC0811115C00E9493
:101D40007B0C82E8F8120AC00093E9008091EB0056
:101D500085FB882780F91092E90001C080E080931C
:101D6000F1001092F100E1C0982F9D7F913019F59C
:101D700092E0F91220C0209709F067C0202F2F773A
:101D80009FEF920F943008F060C09EEF9093E800B0
:101D90002093E900833009F4CCC089E18093EB0003
:101DA00081E090E001C0880F2A95EAF78093EA006D
:101DB0001092EA00C1C00115110509F04AC0E1EA1C
:101DC000FE1225C08130A1F40E947B0C80912A0173
:101DD0008093F10080912B018093F100ECE2F1E01F
:101DE00081918093F10081E0E233F807C9F79DC04B
:101DF000823029F40E947B0C80914B0189C0833092
:101E000009F097C00E947B0C80914D0181C091E246
:101E1000F9128FC0893061F48091E80082FFFCCF15
:101E20008091F100809349018BEF8093E8007DC0A1
:101E30008A3029F4D0934B0110924C0176C08B303C
:101E400009F077C0C0934D0170C00115110509F468
:101E500070C002301105A9F591EAF9121FC0813056
:101E600009F067C088E03EEF9091E800292F2570C7
:101E7000D9F392FD61C0982F893008F098E0292F9E
:101E8000222321F01092F1002150FACF891B3093C8
:101E9000E8008111E9CF983039F34EC0E1E2FE123B
:101EA00048C08A3009F441C0893009F042C08091AD
:101EB000E80082FFFCCF8BEF8093E8000E947B0C50
:101EC00034C001301105A9F5F1EAFF1224C08130B8
:101ED000C9F40E947B0C809153018093F1008091A2
:101EE00054018093F100809155018093F10080911D
:101EF00056018093F100809157018093F100809109
:101F0000580106C08330A9F40E947B0C80916801BF
:101F10008093F1000AC091E2F9120BC08B3019F4E2
:101F2000C093680102C08A3021F48EEF8093E800EC
:101F300003C081E28093EB00FF91EF91DF91CF919D
:101F4000BF91AF919F918F917F916F915F914F91D1
:101F50003F912F911F910F91FF900F900FBE0F9007
:101F60001F9018953E9A0895EAE7F1E010821182D9
:101F700012820895362F63E070E00E941410FC0175
:101F8000E658FE4F4083318322830895F894EAE7B0
:101F9000F1E04DE751E028E030E0808190E0022E52
:101FA00002C0959587950A94E2F7469A80FF0CC087
:101FB0000000000000000000000000000000000021
:101FC0000000000046980AC000004698000000008B
:101FD0000000000000000000000000002150310956
:101FE000E1F631964E175F07B1F678940895F894AC
:101FF00098B19F7B88B18064EAE7F1E0219138E0F5
:1020000088B9000000C027FF98B9220F000000C067
:1020100000C000C098B900C03A9591F721E0ED37B3
:10202000F20761F7789408950024552704C0080E3C
:10203000591F880F991F009729F076956795B8F377
:102040007105B9F7802D952F0895991B79E004C08B
:10205000991F961708F0961B881F7A95C9F78095E7
:102060000895AA1BBB1B51E107C0AA1FBB1FA617DF
:10207000B70710F0A61BB70B881F991F5A95A9F731
:1020800080959095BC01CD010895EE0FFF1F05903E
:10209000F491E02D0994F999FECF92BD81BDF89A93
:1020A000992780B50895A8E1B0E042E050E00C9493
:1020B00060100E946E10272F0C946F10DC01CB0172
:1020C000FC01F999FECF06C0F2BDE1BDF89A319648
:1020D00000B40D9241505040B8F70895262FF99959
:1020E000FECF1FBA92BD81BD20BD0FB6F894FA9AFB
:0C20F000F99A0FBE01960895F894FFCFF6
:1020FC001766171717010010200252004F5150FF9E
:0A210C000A0F15160010111213142B
