:100000000C9468010C9485010C9485010C94850175
:100010000C9485010C9485010C9485010C94850148
:100020000C9485010C9485010C94A40A0C94CD0BBE
:100030000C9485010C9485010C9485010C94850128
:100040000C9485010C9485010C9485010C94850118
:100050000C9485010C9485010C9485010C94850108
:100060000C9485010C9485010C9485010C948501F8
:100070000C9485010C9485010C9485010C948501E8
:100080000C9485010C9485010C9485010C948501D8
:100090000C9485010C9485010C9485010C948501C8
:1000A0000C9485010C9485010C94850105061506B8
:1000B000F1051D06FB050D06E705210600061106E4
:1000C000EC051906F6050906E205DD05C905D305A7
:1000D000BF05D805C405CE05BA05B505B105B406FA
:1000E000C406A006CC06AA06BC069606D006AF0635
:1000F000C0069B06C806A506B80691068C067806BB
:1001000082066E06870673067D066906640660062B
:100110005607530750074D074A074707440741074B
:100120003E073B073807350732072F072C072907FB
:100130002607230720071D071A07170714071107AB
:10014000590701C10601C10601C10601C006000030
:100150001C037A00690061006E005F006B0065009F
:10016000790062006F006100720064000C037A0085
:10017000690061006E0031000403090409025B009C
:10018000030100A03209040000010301010009215C
:100190001101000122400007058103080001090444
:1001A0000100010301020009211101000122840064
:1001B0000705820308000109040200020300000091
:1001C0000921110100012222000705830308000113
:1001D000070504030800010631FF0974A101097530
:1001E000150026FF0095087508810209761500267E
:1001F000FF00950875089102C005010902A101855B
:10020000010901A10005091901290515002501753C
:1002100001950581027503950181030501093009E6
:10022000311581257F7508950281060938158125CC
:100230007F35004500750895018106050C0A3802D6
:100240001581257F750895018106C0C005010980CB
:10025000A1018502150126B700190129B77510956E
:10026000018100C0050C0901A10185031501269C2F
:100270000219012A9C02751095018100C00501092F
:1002800006A10175019508050719E029E715002564
:10029000018102950175088103950575010508190D
:1002A00001290591029501750391039506750815BD
:1002B0000026FF000507190029FF8100C012010078
:1002C0000200000008CCCC1534000201020001003D
:1002D00011241FBECFEFDAE0DEBFCDBF11E0A0E0FA
:1002E000B1E0E2E0F0E202C005900D92A83EB10755
:1002F000D9F722E0A8EEB1E001C01D92A734B20701
:10030000E1F70E945C070C94FF0F0C940000AF9281
:10031000BF92CF92DF92EF92FF920F931F93CF93F2
:10032000DF9380E090E00E94D60F5C0182E090E0D5
:100330000E94D60F8C0184E090E00E94D60FEC0161
:1003400086E090E00E94D60F6C0188E090E00E9469
:10035000D60F7C018AE0A816B10409F4B6C10F30AB
:100360001105C1F06D9709F46CC0E3E6CE16D10417
:1003700009F4CBC0F9EAEF16F10409F438C1DF91B2
:10038000CF911F910F91FF90EF90DF90CF90BF9092
:10039000AF9008958FE090E00E94CE0F8093D4013B
:1003A00080E190E00E94CE0F8093D50181E190E042
:1003B0000E94CE0F8093D60182E190E00E94CE0F82
:1003C0008093D70183E190E00E94CE0F8093D80103
:1003D00084E190E00E94CE0F8093D90185E190E006
:1003E0000E94CE0F8093DA0186E190E00E94CE0F4A
:1003F0008093DB0187E190E00E94CE0F8093DC01C7
:1004000088E190E00E94CE0F8093DD0189E190E0C9
:100410000E94CE0F8093DE018AE190E00E94CE0F11
:100420008093DF018BE190E00E94CE0F8093E0018A
:100430008CE190E00E94CE0F8093E1016D9709F06E
:1004400094CF0EE811E0C0E0D0E0CE014D960E94BE
:10045000CE0FF8018083CE014E960E94CE0FF80198
:100460008183CE014F960E94CE0FF8018283CE0188
:1004700080960E94CE0FF8018383CE0181960E9460
:10048000CE0FF8018483CE0182960E94CE0FF80130
:100490008583CE0183960E94CE0FF8018683CE011C
:1004A00084960E94CE0FF8018783CE0185960E9424
:1004B000CE0FF8018087CE0186960E94CE0FF801FC
:1004C0008187CE0187960E94CE0FF8018287CE01E8
:1004D00088960E94CE0FF8018387CE0189960E94EC
:1004E000CE0FF8018487CE018A960E94CE0FF801C4
:1004F00085872E96025F1F4FC634D10509F0A5CF20
:10050000E3E6CE16D10409F035CF08E411E0C0E0EF
:10051000D0E0CE018D599F4F0E94CE0FF80180830D
:10052000CE018C599F4F0E94CE0FF8018183CE01DE
:100530008B599F4F0E94CE0FF8018283CE018A59BA
:100540009F4F0E94CE0FF8018383CE0189599F4FA0
:100550000E94CE0FF8018483CE0188599F4F0E94DC
:10056000CE0FF8018583CE0187599F4F0E94CE0F91
:10057000F8018683CE0186599F4F0E94CE0FF80165
:100580008783CE0185599F4F0E94CE0FF801808747
:10059000CE0184599F4F0E94CE0FF8018187CE0172
:1005A00083599F4F0E94CE0FF8018287CE01825956
:1005B0009F4F0E94CE0FF8018387CE0181599F4F34
:1005C0000E94CE0FF8018487CE0180599F4F0E9470
:1005D000CE0FF80185872E96025F1F4FC634D105D6
:1005E00009F097CFF9EAEF16F10409F0C8CE02E05E
:1005F00011E0C0E0D0E0CE0187559F4F0E94CE0FA2
:10060000F8018083CE0186559F4F0E94CE0FF801DE
:100610008183CE0185559F4F0E94CE0FF8018283C2
:10062000CE0184559F4F0E94CE0FF8018383CE01E7
:1006300083559F4F0E94CE0FF8018483CE018255CF
:100640009F4F0E94CE0FF8018583CE0181559F4FA9
:100650000E94CE0FF8018683CE0180559F4F0E94E5
:10066000CE0FF8018783CE018F549F4F0E94CE0F8B
:10067000F8018087CE018E549F4F0E94CE0FF80163
:100680008187CE018D549F4F0E94CE0FF801828743
:10069000CE018C549F4F0E94CE0FF8018387CE016C
:1006A0008B549F4F0E94CE0FF8018487CE018A544D
:1006B0009F4F0E94CE0FF80185872E96025F1F4F35
:1006C000C634D10509F097CF5ACE8AE090E00E9457
:1006D000CE0F8093E2018BE090E00E94CE0F8093DA
:1006E000E3018CE090E00E94CE0F8093E4018DE066
:1006F00090E00E94CE0F8093E5018EE090E00E9492
:10070000CE0F8093E6012BCECF93DF938091120220
:1007100081111BC0C091ED01D091EE01CF3F21EFBF
:10072000D207B1F0CF3F82EFD80709F44AC08091D9
:100730000D028823B9F088E0EDEEF1E0DF011D92B3
:100740008A95E9F781E080931202DF91CF910895B5
:1007500080910D02813009F43EC08111ECCF0E94DE
:1007600094071DC00E949407CE3FA3E0DA0748F427
:10077000F999FECF6091EF017091F001CE010E94D6
:10078000DC0FCE0102968E3FB3E09B0740F4F9994F
:10079000FECF6091F1017091F2010E94DC0FCE0159
:1007A00004968E3F23E0920718F00E94A607C3CF5D
:1007B000F999FECF6091F3017091F4010E94DC0F72
:1007C000F4CF80910D028111B6CF0E94A60782E07E
:1007D00080930D02B0CF10920D02ADCFCF93DF9377
:1007E000E3E1F2E08CE0DF011D928A95E9F7AFE1E9
:1007F000B2E08BE0ED0119928A95E9F781E0808300
:1008000092E0968393E0918719968C93DF91CF9134
:10081000089588E0E5EFF1E0DF011D928A95E9F7A0
:10082000E5E0F2E08DE0DF011D928A95E9F781E0D5
:10083000808783878DE78187089588E0EDEFF1E079
:10084000DF01982F1D929A95E9F7EDEEF1E0DF01B7
:100850001D928A95E9F7089590E090932502809380
:100860002402089590E09093270280932602089531
:10087000EFE1F2E09081892B80830895EFE1F2E0CF
:1008800010821682158210861782089586E0E6E0AF
:10089000F2E0DF011D928A95E9F7109205020895B2
:1008A00090910602891711F1209107028217F1F049
:1008B000309108028317D1F0409109028417B1F0FA
:1008C00050910A02851791F060910B02681771F040
:1008D000992371F02223A1F03323A9F04423B1F02E
:1008E0005523B9F06623C1F080E0089581E00895B2
:1008F00020E030E0F901EB5FFD4F818381E0089556
:1009000021E030E0F7CF22E030E0F4CF23E030E028
:10091000F1CF24E030E0EECF25E030E0EBCFE5E0B2
:10092000F2E09081892B8083089580910502909157
:10093000F5019817D1F18093F50181E090910602BD
:100940002091F701291719F09093F70181E0909118
:1009500007022091F801291719F09093F80181E01E
:10096000909108022091F901291719F09093F9014B
:1009700081E0909109022091FA01291719F09093D2
:10098000FA0181E090910A022091FB01291779F088
:100990009093FB0190910B028091FC01981390932E
:1009A000FC0181E080931102089580E0C7CF90910F
:1009B0000B022091FC012913F2CF8111F2CF08958F
:1009C00080911102811102C081E0089510921102FC
:1009D00022E348E065EF71E081E00C946F0A8091BA
:1009E0001F0290911402981729F18093140281E05C
:1009F000209124023091250240911A0250911B024D
:100A000042175307C9F030931B0220931A0220911A
:100A100026023091270280911D0290911E028217BA
:100A20009307C9F030931E0220931D0283E0809348
:100A30002902089580E0DCCF209126023091270220
:100A400040911D0250911E024217530759F7882307
:100A500081F381E0ECCF82E0EACFCF93DF93809106
:100A60002902837080932902811104C081E0DF9103
:100A7000CF9108950E946C0A8823C1F38FB7F89430
:100A8000C091E400CE5C92E09093E9009091E80080
:100A900095FD14C0D2E00CC08091E400C81731F37A
:100AA0008FB7F894D093E9009091E80095FD06C0C7
:100AB0008FBF0E946C0A8111EFCFD8CF909129028D
:100AC000923099F1933011F19130D1F410922902C2
:100AD000909113029093F100909114029093F10081
:100AE000909115029093F100909116029093F1006D
:100AF000909117029093F100909118029093F10059
:100B00009AE39093E8008FBF80E0B1CF1092290262
:100B100090911C029093F10090911D029093F1002E
:100B200090911E029093F100EBCF109229029091C8
:100B300019029093F10090911A029093F100909114
:100B40001B029093F100DCCF80E885BF85BF08953C
:100B500090E08931910540F4FC01EA5AFF4F0C9472
:100B6000C80F6111A2C06E980895662309F46DC084
:100B7000559A0895662309F46AC0549A0895662325
:100B800009F46DC0859A0895662309F464C0819ABA
:100B90000895662309F467C0879A0895662309F4C7
:100BA00058C0809A0895662309F45BC0869A089518
:100BB000662309F452C0849A0895662309F455C047
:100BC000269A0895662309F460C0259A089566233D
:100BD00009F453C0519A0895662309F45EC03F9A00
:100BE0000895662309F445C0229A0895662309F4FE
:100BF00050C0579A0895662309F443C0279A089570
:100C0000662309F44EC0539A0895662381F1209A11
:100C100008956623E1F1249A0895662381F1509A9C
:100C200008956623E1F13E9A0895662321F1219A01
:100C30000895662381F1569A0895662321F1239A37
:100C40000895662381F1529A08955598089554980D
:100C500008958098089581980895849808958598B6
:100C6000089586980895879808952698089520985D
:100C700008952298089521980895519808955098BC
:100C800008952798089523980895259808952498FD
:100C9000089557980895569808953F9808953E9856
:100CA000089553980895529808956E9A089590E083
:100CB0008931910540F4FC01E159FF4F0C94C80FB4
:100CC0006111A2C076980895662309F46DC05D9AFB
:100CD0000895662309F46AC05C9A0895662309F4AE
:100CE0006DC08D9A0895662309F464C0899A0895A9
:100CF000662309F467C08F9A0895662309F458C0E3
:100D0000889A0895662309F45BC08E9A0895662335
:100D100009F452C08C9A0895662309F455C02E9A9E
:100D20000895662309F460C02D9A0895662309F496
:100D300053C0599A0895662309F45EC0479A0895EE
:100D4000662309F445C02A9A0895662309F450C021
:100D50005F9A0895662309F443C02F9A0895662385
:100D600009F44EC05B9A0895662381F1289A08958C
:100D70006623E1F12C9A0895662381F1589A08952B
:100D80006623E1F1469A0895662321F1299A089590
:100D9000662381F15E9A0895662321F12B9A0895C6
:100DA000662381F15A9A08955D9808955C98089594
:100DB00088980895899808958C9808958D98089535
:100DC0008E9808958F9808952E98089528980895DC
:100DD0002A9808952998089559980895589808953B
:100DE0002F9808952B9808952D9808952C9808957C
:100DF0005F9808955E9808954798089546980895D5
:100E00005B9808955A980895769A089590E08931EC
:100E1000910510F080E00895FC01E857FF4F0C9415
:100E2000C80F89B18072089589B1807108958FB11A
:100E3000817008958FB1827008958FB18071089587
:100E40008FB1807208958FB1807408958FB18078CA
:100E5000089583B18074089583B18072089583B139
:100E60008071089589B18078089589B1807408955A
:100E700086B18078089586B18074089589B18870AC
:100E8000089589B18470089589B18270089589B1F7
:100E90008170089583B18078089583B18870089532
:100EA00083B18470089583B18270089583B1817095
:100EB00008958CB1807408950C94E9091092310260
:100EC000E0E0F0E0EC52FE4F60E080810E94A80577
:100ED000E0913102F0E0EC52FE4F61E080810E942F
:100EE0005706E0913102EF5FE0933102EE3048F3B4
:100EF000089510923102E0E0F0E0EE51FE4F60E024
:100F000080810E94A805E0913102F0E0EE51FE4F91
:100F100061E080810E945706E0913102EF5FE0932B
:100F20003102E53048F3089510923102E0E0F0E03C
:100F3000E050FF4F60E080810E945706E09131024F
:100F4000EF5FE0933102E23090F3089510923102A6
:100F5000E0E0F0E0E050FF4F61E080810E94570642
:100F6000E0913102EF5FE0933102E23090F30895B7
:100F7000CF93DF931092310280E0C1E0D0E00BC04C
:100F800061E080810E945706809131028F5F8093DB
:100F900031028230F0F4282F30E0AE0102C0440F5D
:100FA000551F8A95E2F780910C0290E084239523E7
:100FB000F901E050FF4F4817590711F760E08081B1
:100FC0000E945706809131028F5F809331028230F8
:100FD00010F3809145028F3F71F0811106C08FEFB1
:100FE00080934502DF91CF9108958150809345020F
:100FF000DF91CF91089580912C0281115AC0809188
:101000002F028B5F80932F0280914602882309F480
:1010100059C080912E02835080932E0280912D0220
:1010200020912B02882309F458C0245020932B02CE
:1010300080910C0282FF55C0C0E0D0E002C0209138
:101040002B0240912E0260912F02CE010E94D40EFD
:101050002196C630D10599F70E94E00E8091450295
:1010600081508093450220912F022F3F09F444C004
:1010700090912E029F3FE1F180912B028F3FA1F1D1
:10108000263028F410922F0225E020932C0296306F
:1010900028F410922E0295E090934602863008F0D4
:1010A000A1CF10922B0285E080932D02DF91CF918A
:1010B000089580912F02855080932F0280914602DF
:1010C0008111A7CF80912E028D5F80932E02809197
:1010D0002D0220912B028111A8CF2C5F20932B028F
:1010E000A7CF0E94CC0EB8CF31E030932D02C8CFED
:1010F00081E080934602C0CF81E080932C02B8CF7C
:10110000CF93DF9380EF80932A0210923002E0E0C9
:10111000C9E0DFE0F0E0EE51FE4F61E080810E9427
:10112000A805E0913002F0E0EE51FE4F60E08081D2
:101130000E94570610923202E0E010C08EE0A89F95
:10114000D0011124AE5FBE4FAE0FB11D8C918777D9
:101150008C93EF5FE0933202EE3010F5F0E0EC524A
:10116000FE4F80810E940607E0913202A09130027A
:101170008111E4CF8EE0A89FD0011124AE5FBE4F55
:10118000AE0FB11D8C9188688C93C093E9018E3E9F
:1011900001F7D0932A02EF5FE0933202EE30F0F2D3
:1011A00010923102E0E0F0E0EE51FE4F60E080810D
:1011B0000E94A805E0913102F0E0EE51FE4F61E09F
:1011C00080810E945706E0913102EF5FE093310287
:1011D000E53048F3E0913002EF5FE0933002E53014
:1011E00008F498CF0E9446040E943E0410923002F8
:1011F00040E01092320290E01AC0803B09F4A9C08E
:1012000008F06BC0803909F48BC0803A59F422573A
:101210003E4FE20FF31F80810E948F044091300205
:10122000909132029F5F909332029E3070F5E92FC9
:10123000F0E08EE0489F90011124D901AE5FBE4FCF
:10124000AE0FBF1F5C9180912A0285238D3009F477
:1012500073C098F68A3009F495C008F451C08B30F9
:1012600009F483C08C30F1F6A901485B5E4FE40FAE
:10127000F51F80810E942C0440913002909132022F
:101280009F5F909332029E3090F24F5F4093300206
:10129000453008F4AECF0E949504882319F083E00E
:1012A0008093E8010E94EF04882319F083E0809383
:1012B000E8018091E901893009F475C0813009F4B1
:1012C0007AC09091E801811172C0992319F0915070
:1012D0009093E801DF91CF910895803C09F45FC0BD
:1012E000803D09F09FCFA90142575E4FE40FF51FE3
:1012F00080810E943204409130029091320292CF5C
:10130000893009F08FCFA901485B5E4FE40FF51FCC
:1013100080810E945004409130029091320282CF2D
:1013200022573E4FE20FF31F80810E9450044091EC
:1013300030029091320276CFC901885B9E4FE80F50
:10134000F91F80810E943204409130029091320254
:1013500069CF22573E4FE20FF31F80810E9438046D
:1013600040913002909132025DCFA901485B5E4FFF
:10137000E40FF51F80810E94380440913002909163
:10138000320250CFA901485B5E4FE40FF51F808108
:101390000E948F04409130029091320243CFA90104
:1013A00042575E4F64CF9091E801913059F08150DF
:1013B0008093E9018ACF0E94E0040E942D0580916C
:1013C000E9017FCF0E94E0040E942D058091E90190
:1013D00075CF80E880936100109261000E94A4059F
:1013E0000E94500A0E946C0A81110AC02FEF85EA00
:1013F0009EE0215080409040E1F700C00000F2CF15
:101400000E945E070E947907CFEF10923102E0E060
:10141000F0E0E050FF4F61E080810E94A805E0917C
:101420003102F0E0E050FF4F60E080810E945706FB
:10143000E0913102EF5FE0933102E23048F30E9425
:10144000CA0EC09345020E94CC0E0E94E00E81E0BD
:101450008093120280930D020E9487012FEF89E68C
:1014600098E1215080409040E1F700C000000E94C8
:1014700046040E943E0422E348E065EF71E081E00B
:101480000E946F0A0E94840380910D02823009F449
:10149000BCCF8130B9F70E9480080E94B807F2CF14
:1014A00081E08093D70080EA8093D80082E189BDF3
:1014B00009B400FEFDCF80E98093D8001092E000CF
:1014C0001092EC018CE08093E20078940E94090471
:1014D0000E94EE030C941D048091EC0108959091FC
:1014E000EC019923E9F09FB7F8943091E400230FC1
:1014F0008093E9003091E80035FF0DC013C0909152
:10150000E400291769F09FB7F8948093E9003091BF
:10151000E80035FD07C09FBF9091EC019111EFCF1E
:1015200081E00895442351F0FB019B01240F311DFC
:1015300081918093F1002E173F07D1F78AE38093C2
:10154000E8009FBF80E008951F920F920FB60F92A0
:1015500011242F933F934F938F939F938091E1009A
:101560001092E10083FF0FC01092E90091E0909388
:10157000EB001092EC0092E09093ED0098E09093D5
:10158000F0001092EC0182FF04C08091EC01811107
:101590000AC09F918F914F913F912F910F900FBE55
:1015A0000F901F9018959091EB019F5F89E2989F93
:1015B000812D1124869586958695392F22E3829F69
:1015C00030191124832F311116C01092EB01909124
:1015D000E80095FF12C090911202992371F02091BA
:1015E0000D0221114AC08091EC0181114EC021E011
:1015F0002093120202C09093EB0190910E02992366
:1016000041F28091EA018F5F8093EA01837009F0D3
:10161000C0CF81E08093E9008091E80085FFB9CFD9
:1016200080910F028F5F80930F028913B2CF1092C7
:101630000F028091F5018093F1008091F601809373
:10164000F1008091F7018093F1008091F80180937F
:10165000F1008091F9018093F1008091FA0180936B
:10166000F1008091FB018093F1008091FC01809357
:10167000F1008AE38093E8008CCF9091EC01911106
:1016800054C081E080931202B8CF8FB7F8943091A4
:10169000E40094E09093E9009091E80095FD20C06B
:1016A0008FBF8091EC01882309F4A1CF8091E400E1
:1016B000381709F49CCF44E00BC08FBF8091EC0138
:1016C000882309F494CF8091E400381709F48FCF70
:1016D0008FB7F8944093E9009091E80095FFEDCF23
:1016E0009091F1009093ED019091F1009093EE01B3
:1016F0009091F1009093EF019091F1009093F0019F
:101700009091F1009093F1019091F1009093F2018A
:101710009091F1009093F3019091F1009093F40176
:101720009AE39093E8008FBF63CF9FB7F89430910E
:10173000E40024E02093E9002091E80025FD20C08A
:101740009FBF9091EC01992309F49BCF9091E40005
:10175000931709F496CF44E00BC09FBF9091EC0122
:10176000992309F48ECF9091E400391709F489CFB9
:101770009FB7F8944093E9002091E80025FFEDCF52
:101780002091F1002093ED012091F1002093EE01D2
:101790002AE32093E8009FBF75CF1F920F920FB6E8
:1017A0000F9211242F933F934F935F936F937F93E7
:1017B0008F939F93AF93BF93EF93FF931092E900A2
:1017C0008091E80083FF38C07091F1004091F100F2
:1017D0008091F1002091F10090E0922B2091F10096
:1017E0005091F10030E0352B6091F100E091F10073
:1017F00052EF5093E800463099F1453009F442C168
:10180000493009F47EC0483009F40BC14111B9C117
:101810008091E80080FFFCCF723809F488C180E035
:101820008093F1001092F1008EEF8093E80007C0E2
:101830002115310509F00EC181E28093EB00FF9183
:10184000EF91BF91AF919F918F917F916F915F9138
:101850004F913F912F910F900FBE0F901F901895B1
:10186000811541E0940709F459C18115F2E09F0701
:1018700009F467C1811542E2940709F429C1811571
:10188000F1E29F0709F466C1811543E0940709F06E
:1018900065C22930344081F6A4E0B0E024E048E796
:1018A00051E0862F90E09E2B8F3F910509F020F4A8
:1018B0008A179B0708F4262F6EEF8091E800857049
:1018C000E1F38091E80082FDBACF322F293008F48D
:1018D00020C138E0FA01832F94919093F100815058
:1018E00031968111F9CF8FEF830F90E00196480F69
:1018F000591F231B6093E8002111DFCF3830E9F234
:101900009ECF711190C08093EC018EEF8093E80020
:1019100081E08093E900E2E4F1E0E491E093EB0000
:10192000EE2309F464C1E3E4F1E0E491E093EC0018
:10193000E4E4F1E0E491E093ED0025E431E082E0BD
:101940008093E900C9010196F90144914093EB00AD
:10195000442351F0FC0184918093EC00C90103966B
:10196000319624912093ED0023E02093E9009C011F
:101970002F5F3F4FFC0144914093EB00442359F00B
:10198000F90124912093EC009C012D5F3F4F31968B
:1019900084918093ED0084E08093E900C901019671
:1019A000F90144914093EB00442351F0FC018491F0
:1019B0008093EC00C9010396319624912093ED00A9
:1019C00025E02093E9009C012F5F3F4FFC014491EB
:1019D0004093EB00442359F0F90124912093EC004B
:1019E0009C012D5F3F4F319684918093ED0086E0FE
:1019F0008093E900A9014F5F5F4FF90184918093C3
:101A0000EB00882341F0FA0144914093EC003196B9
:101A100024912093ED008EE78093EA001092EA0073
:101A20000ECF7038D1F121153105A1F4713A09F4C6
:101A3000E1C0713209F000CF4930D9F14A3009F4E0
:101A40007FC14B3009F0F8CE809310028EEF809367
:101A5000E800F5CE2230310509F444C021303105CB
:101A600009F0EACE713A09F434C1713209F0E4CEDA
:101A70004B3009F46DC14A3009F0DECE8EEF809311
:101A8000E800DDCE2EEF2093E8002091E80020FF53
:101A9000FCCF80688093E300D2CE8091E80080FF85
:101AA000FCCF8091EC018093F1008EEF8093E800F1
:101AB000C6CE8091E80082FFFCCF8091F100809338
:101AC0000C028BEF8093E8008EEF8093E800B7CE96
:101AD0002115310509F047C0A0E4B0E020E44DE74E
:101AE00052E0DFCE713A09F4D2C0713209F0A4CECF
:101AF0004A3021F2493009F09FCE8091E80082FF00
:101B0000FCCF8BEF8093E8008091E80080FFFCCF52
:101B1000B5CF2111DFCE6093E80091CE232B09F0E1
:101B20008BCEA2E1B0E022E14DEB52E0BACE2093A1
:101B3000E9008091EB0085FB882780F91092E9008D
:101B40006FCE232B09F078CEABE5B0E02BE54CE768
:101B500051E0A7CE21153105E1F5A9E0B0E029E07B
:101B60004EE851E09ECE2230310509F48AC0213082
:101B7000310509F061CEA4E8B0E024E849EF51E076
:101B800090CE542F5D7F513009F04DCF723009F067
:101B90004ACF009709F04CCE522F5F776FEF650F59
:101BA000663008F045CE8EEF8093E8005093E90050
:101BB000433009F441CE89E18093EB0081E090E06D
:101BC00001C0880F5A95EAF78093EA001092EA0064
:101BD00036CE2230310509F4ADC02130310509F08F
:101BE0002BCEA9E0B0E029E047EA51E05ACE23E449
:101BF00031E0A5CE413089F04230B9F1433009F0EF
:101C00001BCE8091E80080FFFCCF80911002809372
:101C1000F1008EEF8093E80012CE8091E80080FF03
:101C2000FCCF8091F5018093F1008091F6018093C3
:101C3000F1008091F7018093F1008091F801809389
:101C4000F1008091F9018093F1008091FA01809375
:101C5000F1008091FB018093F1008091FC01809361
:101C6000F1008EEF8093E800EACD8091E80080FFDC
:101C7000FCCF80910E028093F1008EEF8093E800FC
:101C8000DECDA2E2B0E022E247ED51E00ACE4130E3
:101C900009F0D2CD28E03EEF8091E800982F9570B2
:101CA000D9F382FDCCCD922F293070F098E0892FA6
:101CB0001092F1008150E1F7291B3093E8002111C7
:101CC000EBCF983049F3BBCD2111F1CF3093E80031
:101CD000B6CD413079F0433009F0AECD8091E800C7
:101CE00080FFFCCF809128028093F1008EEF8093DB
:101CF000E800A5CD8091E80080FFFCCF8091130221
:101D00008093F100809114028093F100809115027C
:101D10008093F100809116028093F1008091170268
:101D20008093F100809118028093F1008EEF8093F0
:101D3000E80085CDA9E0B0E029E040EC51E0B1CD6C
:101D400090930E0210920F028EEF8093E80077CDF1
:101D5000809328028EEF8093E80071CD8130F3E00C
:101D60009F0751F42930344009F066CDACE0B0E073
:101D70002CE04CE651E095CD8230934009F05CCDEB
:101D80002930344009F058CDACE1B0E02CE140E519
:101D900051E087CD869A089582E1E3E3F2E0DF0126
:101DA0001D928A95E9F70895FC01EE0FFF1F8E0F33
:101DB0009F1FFC01ED5CFD4F4083618322830895EA
:101DC000F894E3E3F2E025E432E062C000008E988C
:101DD0000000000000000000000000000000000003
:101DE00080818E9A86FD78C000008E9800000000E9
:101DF00000000000000000000000000080818E9ABA
:101E000085FD79C000008E980000000000000000F1
:101E1000000000000000000080818E9A84FD7AC0DE
:101E200000008E980000000000000000000000008C
:101E30000000000080818E9A83FD7BC000008E9898
:101E40000000000000000000000000000000000092
:101E500080818E9A82FD7CC000008E980000000078
:101E600000000000000000000000000081918E9A38
:101E700081FD7DC000008E98000000000000000081
:101E800000000000000000002E173F0709F47EC08C
:101E90008E9A00008E9800000000000000000000F4
:101EA000000000000000808190E0880F892F881FCB
:101EB000990B8E9A892B09F489CF0000000000004D
:101EC00000000000000000000000000000008E98EC
:101ED00080818E9A86FF88CF0000000000000000FD
:101EE0000000000000000000000000008E988081CB
:101EF0008E9A85FF87CF00000000000000000000E0
:101F0000000000000000000000008E9880818E9A82
:101F100084FF86CF000000000000000000000000E9
:101F200000000000000000008E9880818E9A83FFE0
:101F300085CF00000000000000000000000000004D
:101F40000000000000008E9880818E9A82FF84CF6E
:101F50000000000000000000000000000000000081
:101F6000000000008E9881918E9A81FF83CF00003F
:101F70000000000000000000000000000000000061
:101F800000008E982E173F0709F082CF78940895AD
:101F9000EE0FFF1F0590F491E02D0994F999FECF03
:101FA00092BD81BDF89A992780B50895A8E1B0E067
:101FB00042E050E00C94E30F0E94F10F272F0C94A5
:101FC000F20FDC01CB01FC01F999FECF06C0F2BD96
:101FD000E1BDF89A319600B40D9241505040B8F7E7
:101FE0000895262FF999FECF1FBA92BD81BD20BD5D
:101FF0000FB6F894FA9AF99A0FBE01960895F894DC
:02200000FFCF10
:1020020012021111111111111111111111111111CC
:1020120011111111111111111111111111111113AC
:1020220013131010101010101010001122001111B3
:102032001111101010151500101122662200001146
:102042000010110066221111353A3B3C3D3E3F40E3
:1020520041424344454C2B595A5B5C5D5E5F606173
:1020620062565731390104020000000000000000EE
:102072000028020053474946000000EAE9000052E6
:1020820001000400002C000050000010514F291ED6
:102092001F20212223242526272D2E2A2B141A081D
:1020A20015171C180C12132F303139041607090AA0
:1020B2000B0D0E0F3334002802001D1B06190511EB
:1020C20010363700385201000400002C003850004E
:1020D2000010514F1514180A090F1601040E0D0CA9
:0820E2000B03050607081700B7
:00000001FF
